:020000020000FC
:0200000024C01A
:02004000ADC051
:10004800DCC0F8940FEF18E00DBF1EBFA89508E1BB
:10005800009360000FE10093600000E000936000EF
:10006800A8950FEA04B902E505B90FE007B900EF52
:1000780008B902E00AB90DEF0BB900E50CBD00E0C4
:100088000DBD002704BD05E005BD01E003E00093B8
:10009800C40000270093C50000E10093C1000EE0F2
:1000A8000093C2000091C60000270093C000009191
:1000B800C10000690093C1000FE7602E0FE0702EA9
:1000C8002227442708E0302E06E0402EA8958AD043
:1000D800789401D0FECFD1E0C0E04F9906C04EE73A
:1000E80015D051D04EE712D04ED04EE7409A0ED0E0
:1000F800409849D04EE7419A09D0419844D011E040
:100108000CEF0A95F1F71A95D9F708955990F894D4
:1001180057FC7EBC57FE6EBC789438D0F89456FCD9
:100128007EBC56FE6EBC789431D0F89455FC7EBCEB
:1001380055FE6EBC78942AD0F89454FC7EBC54FECC
:100148006EBC789423D0F89453FC7EBC53FE6EBCEE
:1001580078941CD0F89452FC7EBC52FE6EBC789405
:1001680015D0F89451FC7EBC51FE6EBC78940ED02C
:10017800F89450FC7EBC50FE6EBC789407D04A952B
:1001880009F0C4CF0895A89905D008950DB507FFC3
:10019800FDCF0895A895A89A4A9419F506E0402E2F
:1001A80023FD02C0299A06C0277F299902C0299AEF
:1001B80001C02998269420FC02C0289804C0289AD7
:1001C80022FD01C00FD0032D0A9511F0302E09C071
:1001D80008E0302E002721FF06EF22FF0EEF202E29
:1001E800297F0895B1E0A0E000271FEF0D931A952D
:1001F800E9F70D931A95E9F708951FB61F921F9313
:100208000F9324600091C0001091C60003FD29C01F
:1002180004FD23C0313049F0323069F0333080F4C6
:100228000F911F911F901FBE18951123D1F433957C
:10023800B0E0A1E0F5CF119799F7B1E0A0E03395D0
:100248000C91011711F01C9328601196A03041F70A
:10025800B33031F722603327E3CF31E01091C60085
:0E026800DFCF33271091C6001091C600D9CF0A
:00000001FF
